:020000040800F2
:1000000038BE0120AD020008992B0008012A000823
:10001000912B000831090008296800080000000041
:10002000000000000000000000000000D164000893
:10003000D113000800000000A12B0008D9640008BB
:10004000C7020008C7020008C7020008C70200086C
:10005000C7020008C7020008C7020008C70200085C
:10006000C7020008C7020008C7020008C70200084C
:10007000C7020008C7020008C7020008C70200083C
:10008000C7020008C7020008C7020008C70200082C
:10009000C7020008C7020008C7020008C70200081C
:1000A000C7020008C7020008C7020008C70200080C
:1000B000C7020008C7020008C7020008C7020008FC
:1000C000C7020008C7020008C7020008C7020008EC
:1000D000C7020008C7020008C7020008C7020008DC
:1000E000C7020008C702000800000000C70200089D
:1000F000C7020008C7020008C7020008C7020008BC
:10010000C7020008C7020008C7020008C7020008AB
:10011000C7020008C7020008C7020008C70200089B
:10012000C7020008C7020008C7020008C70200088B
:10013000C7020008C7020008C7020008C70200087B
:1001400000000000000000000000000000000000AF
:10015000C7020008C7020008C10A0008C702000859
:10016000C7020008C7020008C7020008C70200084B
:10017000C7020008C7020008D909000800000000F3
:10018000C7020008C7020008C7020008C70200082B
:10019000C7020008C7020008C7020008C70200081B
:1001A000C7020008C7020008C7020008C70200080B
:1001B000C7020008C7020008C7020008C7020008FB
:1001C000C7020008C7020008C7020008C7020008EB
:1001D000C7020008C7020008C7020008C7020008DB
:1001E000C7020008C7020008C7020008C7020008CB
:1001F000C7020008C7020008C7020008C7020008BB
:10020000C7020008C7020008C7020008C7020008AA
:10021000C7020008C7020008C7020008C70200089A
:10022000C7020008C7020008C7020008000000005B
:10023000C7020008C702000800000000C70200084B
:10024000C7020008C7020008C7020008C70200086A
:10025000C7020008C7020008C7020008C70200085A
:10026000C7020008C7020008C7020008C70200084A
:10027000C7020008C7020008C7020008000000000B
:10028000C7020008C7020008C702000800000000FB
:1002900000000000C7020008DFF80CD000F08AFA66
:1002A00000480047E168000838BE01200648804742
:1002B00006480047FEE7FEE7FEE7FEE7FEE7FEE74B
:1002C000FEE7FEE7FEE7FEE7E964000899020008A2
:1002D0002DE9F0410024061B254671F1000605DAE0
:1002E00001240027D0EB070067EB0101161E73F114
:1002F000000605DA0027D2EB0702012567EB0303AE
:1003000000F05EF886460E4617469C46AC4204D086
:100310000025D0EB050E65EB010624B10020D2EBE1
:10032000000760EB030C704631463A466346BDE871
:10033000F08140EA01039B0703D009E008C9121FBE
:1003400008C0042AFAD203E011F8013B00F8013B8F
:10035000521EF9D27047D2B201E000F8012B491EBB
:10036000FBD270470022F6E710B513460A46044652
:100370001946FFF7F0FF204610BD30B504460020B7
:10038000034600E05B1C934203D2E05CCD5C401B63
:10039000F8D030BD30B50B460146002020220124A4
:1003A00009E021FA02F59D4205D303FA02F5491B43
:1003B00004FA02F52844151EA2F10102F1DC30BD59
:1003C0002DE9F05F0546002092469B46884606468A
:1003D000814640241BE0284641464746224600F01D
:1003E000FBF953465A46C01A914110D3114618469C
:1003F000224600F016F82D1A67EB01084F462246F8
:100400000120002100F00DF817EB00094E41201EDD
:10041000A4F10104DFDC484631462A464346BDE8E4
:10042000F09F202A04DB203A00FA02F100207047F6
:100430009140C2F1200320FA03F319439040704722
:100440002DE9FE4F804681EA0300C00F0C46009064
:1004500021F0004123F00045B8EB0200A94105D28C
:100460004046214690461C460B46024623F000407B
:10047000104347D0270DC7F30A00C3F30A51029077
:10048000401A019040286BDAC3F3130040F4801B3C
:100490000098924620B10023D2EB030A63EB0B0BCA
:1004A00001985946C0F140025046FFF7BAFF064690
:1004B0000D4650465946019A00F09EF910EB08008F
:1004C0006141002487EA115284EAE7731A4340D05D
:1004D000009A62B3019A012A4FEA075215DC001B09
:1004E00061EB02014FF0004202EA0752CDE90042FF
:1004F000001C41F5801132462B4600F09EF903B0F6
:10050000BDE8F08F40462146F9E7001B61EB020190
:10051000001C41F5801300185B412018A2F500175C
:1005200047EB030140EAD570B6196D4111E06D0843
:100530004FEA360645EAC0754FEA0752001B61EBE9
:100540000201001C41F5801149084FEA30000019F2
:10055000514132462B4603B0BDE8F04F00F05EB982
:100560000098012240000023D0EB020263EBE0730D
:10057000009821464FEAE074B8EB000061EB0401FB
:10058000E9E783F000435BE781F0004158E72DE99C
:10059000FE4F81EA030404F0004421F0004100947E
:1005A0004FF0000B23F0004350EA01045ED052EA02
:1005B00003045BD0C3F30A54C1F30A552C44A4F2DC
:1005C000F3340194A0FB0254C1F3130141F48011F0
:1005D000C3F3130343F4801301FB024400FB034EF7
:1005E000840A970A44EA815447EA8357A4FB0768C0
:1005F00002958D0A05FB07854FEA932C04FB0C54EA
:100600002705029D4FEA065847EA1637B5EB08055D
:100610006EEB070C870E920E47EA811742EA8312AF
:10062000A7FB0201B6EB0B0164EB00042B0D43EAC0
:100630000C335E1844EB1C50DA465146E7FB0201CE
:10064000C5F313044FEA0B3343EA14534FEA043261
:10065000019C43EA0603A4F10C040294009CCDE93A
:1006600000B400F0EAF803B0BDE8F08F00200146C6
:10067000F9E72DE9F04D81EA030404F0004B21F085
:10068000004514464FF0000A23F0004150EA0502ED
:1006900020D054EA01021DD0C5F30A570246C5F323
:1006A0001303C1F31300C1F30A5640F4801543F459
:1006B0008013A7EB0608101BD64608F2FD3873EB33
:1006C000050002D308F1010801E092185B41B8F17E
:1006D000000F03DA00200146BDE8F08D00204FF442
:1006E0008011064684460EE0171B73EB050705D301
:1006F000121B63EB050306434CEA010C49084FEA61
:10070000300092185B4150EA0107EDD152EA030034
:1007100012D082EA040083EA0501084305D0101BC9
:10072000AB4106D20122002306E000224FF0004335
:1007300002E06FF0010253101AEB06004CEB085177
:1007400010EB0A0041EB0B01BDE8F04D00F066B87C
:10075000C1F30A52C1F3130140F2FF3341F4801197
:100760009A4202DA00200146704740F233439A422F
:10077000A2F2334202DC524200F02EB8FFF751BE23
:1007800030B5041E71F1000404DB4FF00044404218
:1007900064EB0101141E73F1000405DB1C464FF0ED
:1007A0000043524263EB0403994208BF904230BDBC
:1007B00000207047064C074D06E0E06840F001035A
:1007C00094E8070098471034AC42F6D3FFF768FD71
:1007D000F0E3080830E40808202A04DB203A21FA74
:1007E00002F00021704721FA02F3D040C2F120024A
:1007F0009140084319467047202A06DBCB17203A60
:1008000041FA02F043EAE07306E041FA02F3D04015
:10081000C2F12002914008431946704710B5141EDA
:1008200073F1000408DA401C41F1000192185B41A9
:100830001A4301D120F0010010BD2DE9F04D924680
:100840009B4611B1B1FA81F202E0B0FA80F2203297
:100850009046FFF7E6FD04460F4640EA0A0041EAEB
:100860000B0153465A46084313D0114653EA010080
:1008700019D0C8F140025046FFF7AEFF05460E46BC
:10088000504659464246FFF7CCFD084305D00120AB
:1008900004E020463946BDE8F08D0020054346EAD5
:1008A000E0762C4337430A986305E40AA0EB08007E
:1008B0000022FD0A44EA47540A3002D500200146CE
:1008C000E9E7010510196941DDE9084500196941A9
:1008D000BDE8F04DA2E770B58C1810F8015B15F07B
:1008E000070301D110F8013B2A1106D110F8012BA2
:1008F00003E010F8016B01F8016B5B1EF9D12B07C7
:1009000005D40023521E0DD401F8013BFAE710F87C
:10091000013BCB1A921C03E013F8015B01F8015B69
:10092000521EF9D5A142D8D3002070BD00000000AE
:10093000FEE7000000000000806B816C496D022919
:1009400008BF7047012180F83510C16C41F04001AB
:10095000C164704700000000806B826B816C002ACC
:1009600009680B6803F4002209D0836BDB0713D1FD
:1009700092B1CA68C36B02EBC302CA6014E0BAB991
:100980000A68120316D4D0F83CC0D0E9102303EB58
:100990008C030B6182630DE00A6812030AD40A69B2
:1009A000C36B02EBC3020A61816B0139816301E011
:1009B000426CCA60816B026C91420BD10168CA68BB
:1009C00042F00102CA600968890758BF70470121D7
:1009D00080F835107047000070B54FF6D03440F6FF
:1009E0003916C2F20344C0F600062068056969079B
:1009F00035D4A80741D4E8064FD4280702D520688B
:100A000008214161E80708BF70BD206801688907B7
:100A100003D5C16821F01E01C160C16845F64C4292
:100A200021F00101C160012141614AF63061C2F249
:100A30000142C2F2010108681368C01AC0087C288C
:100A400043F6D830C2F200002DD90968116045F68E
:100A500050420178C2F201421170012125E00421C7
:100A60004161E06C40F00200E06484F83510A06C55
:100A7000066500F02DFEA807BDD521680222A06CF6
:100A80004A61E16C41F00101E164042184F8351010
:100A9000066500F01DFEE806AFD520681021416113
:100AA0002807AFD5ABE701780131017044F2DA30A5
:100AB000C2F200000121017070BD000000000000C2
:100AC0002DE9F04782B00020019041F64C3045F608
:100AD000D434C2F20040C2F2014448F2B51240F2EE
:100AE0006F490168C1F64E32A56DC4F20209206853
:100AF000A1FB021848452E68296815DC9F21C4F225
:100B0000020188422BDC5721C4F2020188424FDCEB
:100B10001021C4F20201884278D02821C4F20201D7
:100B2000884273D040216CE045F22F42C5F60202A4
:100B3000904227DC40F2B742C4F20202904243DC0A
:100B400040F27041C4F2020188425FD040F2884115
:100B5000C4F20201884259D040F2A04151E040F273
:100B60002741C4F2020188423DDCA021C4F2020107
:100B700088424BD0B821C4F20201884246D040F2EC
:100B800010413EE045F26B42C5F60202904273DC32
:100B900045F23042C5F60202904200F0808045F2F4
:100BA0004442C5F60202904279D045F2584271E0C3
:100BB0005821C4F20201884228D07021C4F20201F7
:100BC000884223D088211CE040F2B842C4F20202DD
:100BD00090421BD045F20842C5F6020290425ED018
:100BE00045F21C4256E040F22841C4F2020188421C
:100BF0000CD040F24041C4F20201884206D040F2DB
:100C00005841C4F20201884240F04283E16D08225B
:100C100001F01F0140F20F4A8A40C4F2020A324238
:100C200000F0E08050454FF0040312DC6F27C4F25F
:100C30000207B8426EDC3F27C4F20207B84200F355
:100C4000A1801027C4F20207B84200F0BF80282715
:100C5000B7E048456ADC40F23F47C4F20207B842B9
:100C600000F3978040F21047C4F20207B84200F048
:100C7000AD8040F22847A4E045F26C42C5F602027E
:100C800090420CD045F28042C5F60202904206D056
:100C900045F29442C5F60202904240F0F9820268A1
:100CA000E36D03F01F0304279F400F4218BF12F0AB
:100CB000040621D102279F400F4218BF12F00206FE
:100CC0004BD1D940090740F1E38212F0080100F04E
:100CD000DF82016821F00E010160012000FA03F1BA
:100CE0006960606584F835000020E16C84F83400A8
:100CF000002940F0C282CBE211046F6025D4910636
:100D000003D4016821F004010160216C002940F046
:100D1000B482BDE29F27C4F20207B84242DC7027CA
:100D2000C4F20207B84251D088274AE040F29F47F8
:100D3000C4F20207B8423CDC40F27047C4F202073A
:100D4000B84243D040F288473BE0D00300F19D8297
:100D5000A16C002940F091829AE211046F6000F1C9
:100D60009A82910609D4016821F00A0101600120EC
:100D700084F83500002084F83400E16B002940F04D
:100D80007C8285E24027C4F20207B8421ED0582771
:100D900017E040F24047C4F20207B84216D040F2D2
:100DA00058470EE0A027C4F20207B8420ED0B82779
:100DB00007E040F2A047C4F20207B84206D040F272
:100DC000B847C4F20207B84218BF082307681F4299
:100DD00008D0036823F004030360AA60626D42F048
:100DE0000102626501228A4032426AD0504510DC1D
:100DF0006F23C4F2020398421CDC3F23C4F20203B7
:100E0000984232DC1023C4F20203984251D02823C6
:100E10004AE048451ADC40F23F43C4F202039842DC
:100E20002ADC40F21043C4F20203984241D040F25F
:100E3000284339E09F23C4F20203984225DC702343
:100E4000C4F20203984234D088232DE040F29F433D
:100E5000C4F2020398421FDC40F27043C4F2020362
:100E6000984226D040F288431EE04023C4F2020399
:100E700098421ED0582317E040F24043C4F20203C8
:100E8000984216D040F258430EE0A023C4F2020369
:100E900098420ED0B82307E040F2A043C4F2020308
:100EA000984206D040F2B843C4F20203984240F0A0
:100EB000F88143691B0604D5AA60626D42F0020204
:100EC000626504228A4032426AD0504510DC6F23AA
:100ED000C4F2020398421CDC3F23C4F2020398428E
:100EE00032DC1023C4F20203984251D028234AE096
:100EF00048451ADC40F23F43C4F2020398422ADC20
:100F000040F21043C4F20203984241D040F2284319
:100F100039E09F23C4F20203984225DC7023C4F217
:100F20000203984234D088232DE040F29F43C4F25C
:100F3000020398421FDC40F27043C4F2020398425D
:100F400026D040F288431EE04023C4F202039842B8
:100F50001ED0582317E040F24043C4F202039842E7
:100F600016D040F258430EE0A023C4F20203984288
:100F70000ED0B82307E040F2A043C4F20203984227
:100F800006D040F2B843C4F20203984240F08B818D
:100F900003689B0704D5AA60626D42F00402626593
:100FA00010228A4032427CD050454FF0080310DCBA
:100FB0006F27C4F20207B8421CDC3F27C4F20207C5
:100FC000B84232DC1027C4F20207B84251D02827B9
:100FD0004AE048451ADC40F23F47C4F20207B842F3
:100FE0002ADC40F21047C4F20207B84241D040F276
:100FF000284739E09F27C4F20207B84225DC702752
:10100000C4F20207B84234D088272DE040F29F474F
:10101000C4F20207B8421FDC40F27047C4F2020774
:10102000B84226D040F288471EE04027C4F20207AB
:10103000B8421ED0582717E040F24047C4F20207DA
:10104000B84216D040F258470EE0A027C4F202077B
:10105000B8420ED0B82707E040F2A047C4F202071A
:10106000B84206D040F2B847C4F20207B84218BFEF
:10107000042307681F4214D0AA6002685203026862
:1010800006D4D20506D4026822F00802026001E00C
:1010900010034DD4226C22B120469047E06D00F041
:1010A0001F01202000FA01F2324200F0A9802068DE
:1010B0001023504510DC6F27C4F20207B8421CDC35
:1010C0003F27C4F20207B84236DC1027C4F20207F9
:1010D000B84255D028274EE048451ADC40F23F4739
:1010E000C4F20207B8422EDC40F21047C4F20207F5
:1010F000B84245D040F228473DE09F27C4F202079E
:10110000B84229DC7027C4F20207B84238D08827D9
:1011100031E040F29F47C4F20207B84223DC40F2BC
:101120007047C4F20207B8422AD040F2884722E052
:10113000A26C002AB0D1B4E74027C4F20207B8423B
:101140001ED0582717E040F24047C4F20207B842C9
:1011500016D040F258470EE0A027C4F20207B8426A
:101160000ED0B82707E040F2A047C4F20207B84209
:1011700006D040F2B847C4F20207B84218BF0223B3
:1011800007681F423CD0AA6094F83520042A026800
:101190001BD122F016020260426922F080024261F5
:1011A000226CA36C1A4303D0026822F0080202608A
:1011B0003F208840A860012084F83500216D002080
:1011C000002984F8340058D162E0510301680CD43E
:1011D000C9050ED4016821F010010160012084F8D6
:1011E0003500002084F8340003E0080301D4616C6A
:1011F00000E0E16B21B145F6D430C2F201408847EE
:10120000606D002844D0606DC00734D0042084F89D
:10121000350020684FEA9821026822F0010202603E
:10122000019A013201928A421AD80268D20717D075
:10123000019A013201928A4212D80268D2070FD075
:10124000019A013201928A420AD80268D20707D075
:10125000019A013201928A4202D80268D207DFD194
:101260000068C0074FF0030008BF012084F8350074
:10127000002084F83400E16C51B145F6D430C2F25C
:10128000014002B0BDE8F0470847216C0029F4D1C5
:1012900002B0BDE8F087D00307D4616C0029ECD11F
:1012A000F6E702680DE602687AE6E16B0029E4D110
:1012B000EEE700000000000040F20F42D0F800C04E
:1012C000C4F20202944510DC6F22C4F2020294457B
:1012D00020DC3F22C4F20202944536DC1022C4F224
:1012E0000202944554D028224EE040F26F42C4F2EC
:1012F000020294451ADC40F23F42C4F202029445D5
:101300002ADC40F21042C4F20202944540D040F27E
:10131000284239E09F22C4F20202944525DC702263
:10132000C4F20202944533D088222DE040F29F425D
:10133000C4F2020294451FDC40F27042C4F2020281
:10134000944525D040F288421EE04022C4F20202B9
:1013500094451DD0582217E040F24042C4F20202E8
:10136000944515D040F258420EE0A022C4F2020289
:1013700094450DD0B82207E040F2B842C4F2020210
:10138000944505D040F2A042C4F20202944517D120
:101390000CF0F8024AF6AB23103ACAF6AA23A2FBD5
:1013A000033109A35F2AC1F302115B5C40F2FF31F4
:1013B0002CEA0101C36588BF043181650846704786
:1013C0002CF0FF01F9E700BF00061016000610160A
:1013D00070470000000000002DE9F04381B044F2A6
:1013E000D4484AF6A84EC5F60208C2F2010E41F2F0
:1013F000000CD8F80070C5F2002CFF06DEF8005093
:1014000040F19D802E68F60730D16C6AA4065CD44A
:10141000EC69A40640F193804AF630662C68C2F26B
:10142000010644F004042C603768EC69A4067BD5FF
:101430003468E41BB4F57A7F70D8EC69A40673D5E0
:101440003468E41BB4F57A7F68D8EC69A4066BD5E0
:101450003468E41BB4F57A7F60D8EC69A40663D5E0
:101460003468E41BB4F57A7FDFD957E02E6846F084
:10147000040626F001062E604AF63066C2F2010626
:1014800037682C68E4071DD03468E41BB4F57A7F14
:1014900044D82C68E40715D03468E41BB4F57A7F8F
:1014A0003CD82C68E4070DD03468E41BB4F57A7F8F
:1014B00034D82C68E40705D03468E41BB4F57A7F8F
:1014C000DFD92BE06FF40C5630E04AF630662C681A
:1014D000C2F2010644F004042C6037686C6AA4066A
:1014E00022D53468E41BB4F57A7F17D86C6AA40659
:1014F0001AD53468E41BB4F57A7F0FD86C6AA40659
:1015000012D53468E41BB4F57A7F07D86C6AA40658
:101510000AD53468E41BB4F57A7FDFD9DEF864407D
:10152000032544F020061EE06FF464562C68344016
:101530002C6001248EF8614000248EF86040002663
:1015400065452E604FF03F04AC602E61AE61EE61E8
:101550006E626E6306D1D8F80040002624F01004B5
:10156000C8F800400025CEF864604FF480348EF84F
:10157000615000258EF860504FF00109CEF800C090
:10158000CEE90143CEE90355CEF81450FF24CEF83E
:101590002050CEE91152CEF84C90CEE91445CEF849
:1015A00058509EF861406CB98EF86050D8F80040F1
:1015B00044F01004C8F80040D8F8004004F01004CB
:1015C0000094009C4FF002088EF861804FF6BF76C1
:1015D000DCF80070CFF6F8763E40DEE906473E4381
:1015E00040F2071746F48036CCF80060DCF834602F
:1015F000BE434FF6F0773443C0F2C0072343CCF824
:101600003430DCF840304FF6FF74A343CCF8403060
:10161000DCF83430002423F44013CCF83430A2F149
:101620000903CFF60174CEF86450022B8EF8619056
:1016300007F540278EF8618038BF4FF48034DEF81C
:101640005C600B2A02BF4FF6F077C0F2C00744EA95
:101650008644DCF81C60012B06EA070644EA06040F
:1016600042EA0402CCF81C20CCF8105002D8FF2229
:10167000CCF8202001228EF861208EF860204FF0F7
:10168000C0138EF86180DCF8442063F31D02CCF8AF
:101690004420CCF83C10CCF80C00DCF8000040F002
:1016A0000100CCF80000DCF80000C0070CD0DCF82A
:1016B0000000C0071CBFDCF800005FEAC07003D068
:1016C000DCF80000C007EED101B0BDE8F0830000F7
:1016D00080B5002800F0028190F83510022917D15A
:1016E00040F20F420168C4F20202914213DC6F2300
:1016F000C4F20203994223DC3F23C4F2020399425D
:1017000039DC1023C4F20203994257D0282351E058
:101710008021416580BD40F26F43C4F202039942CB
:101720001ADC40F23F43C4F2020399422ADC40F241
:101730001043C4F20203994240D040F2284339E0FA
:101740009F23C4F20203994225DC7023C4F20203F2
:10175000994233D088232DE040F29F43C4F2020324
:1017600099421FDC40F27043C4F20203994225D033
:1017700040F288431EE04023C4F2020399421DD088
:10178000582317E040F24043C4F20203994215D0B7
:1017900040F258430EE0A023C4F2020399420DD058
:1017A000B82307E040F2B843C4F20203994205D0DF
:1017B00040F2A043C4F2020399426ED191424FF02D
:1017C000040280F8352010DC6F20C4F20200814250
:1017D00020DC3F20C4F20200814236DC1020C4F23B
:1017E0000200814254D028204EE040F26F40C4F203
:1017F000020081421ADC40F23F40C4F20200814202
:101800002ADC40F21040C4F20200814240D040F293
:10181000284039E09F20C4F20200814225DC70207C
:10182000C4F20200814233D088202DE040F29F4074
:10183000C4F2020081421FDC40F27040C4F2020098
:10184000814225D040F288401EE04020C4F20200D0
:1018500081421DD0582017E040F24040C4F20200FF
:10186000814215D040F258400EE0A020C4F20200A0
:1018700081420DD0B82007E040F2B840C4F2020027
:10188000814205D040F2A040C4F20200814221D141
:10189000086820F00100086080BD0A6822F00E028E
:1018A0000A6045F25742C5F6020291420A6822F0E8
:1018B00001020A6013DC45F22F42C5F60202914292
:1018C0001CDC45F20842C5F6020291422BD045F2DB
:1018D0001C4224E0086820F00100086080BD45F249
:1018E0007F42C5F60202914211DC45F25842C5F62C
:1018F0000202914217D045F26C4210E045F23042AC
:10190000C5F6020291420ED045F2444207E045F28C
:101910009442C5F60202914205D045F28042C5F6D6
:10192000020291421AD1D0E9181CD0E916E30A68E4
:1019300022F480720A6003F01F01012202FA01F111
:10194000CEF80410816ECCF80410C16E31B10A6873
:1019500022F480720A60D0E91C124A60012180F8EA
:101960003510016D0022002980F8342008BF80BDA9
:10197000BDE88040084700002DE9F04381B04AF6F9
:10198000306345F6D439C2F20103C2F2014940F294
:101990006F4803211D68D9F80000C4F202084022F4
:1019A000404515DC9F26C4F20206B0422BDC5726C8
:1019B000C4F20206B04251DC1026C4F20206B04264
:1019C0007BD02826C4F20206B04276D040266FE0D3
:1019D00045F22F46C5F60206B04227DC40F2B74674
:1019E000C4F20206B04245DC40F27046C4F2020680
:1019F000B04262D040F28846C4F20206B0425CD0E7
:101A000040F2A04654E040F22746C4F20206B0423B
:101A100040DCA026C4F20206B0424ED0B826C4F282
:101A20000206B04249D040F2104641E045F26B4315
:101A3000C5F60203984200F3D38045F23043C5F661
:101A40000203984200F0DF8045F24443C5F60203EA
:101A5000984200F0D88045F25843CFE05826C4F2AF
:101A60000206B04229D07026C4F20206B04224D049
:101A700088261DE040F2B846C4F20206B0421CD0EF
:101A800045F20843C5F60203984200F0BC8045F2D7
:101A90001C43B3E040F22846C4F20206B0420CD028
:101AA00040F24046C4F20206B04206D040F2584628
:101AB000C4F20206B04240F0A882022189F8351033
:101AC000002189F83410016821F0010101600168EA
:101AD000C9071ED01968491B052900F2D580016885
:101AE000C90716D01968491B052900F2D080016882
:101AF000C9070ED01968491B052900F2CB8001687F
:101B0000C90706D01968491B0529E0D903212022FD
:101B10007BE248F23F0209F108060168CFF6106245
:101B20001140D9F814504CCE0A43D9F818101A4372
:101B3000D9F81C303243D9F820601543D9F8242055
:101B40002B43042AD9E90B5743EA060341F2000666
:101B500047EA0507C5F6004608BF3B433768B7F1BB
:101B6000005F43EA01031ED3D9F80470A7F12906E8
:101B7000292E18D8DFE806F01515151515151717B5
:101B800017171717171717171717171717171515E9
:101B900015151717171715151717171717171515E1
:101BA000151543F480130360042A436923F00703E7
:101BB00043EA020340F08D80D9E90A65002D43EA2B
:101BC000060300F08680B1F5005F66D0002974D16D
:101BD000022E00F07880012E69D0002E73D078E0BC
:101BE00045F26C43C5F6020398420CD045F280439F
:101BF000C5F60203984206D045F29443C5F60203A7
:101C0000984240F00282022189F83510002189F8BB
:101C100034100168D9F81840D9E9022CA2F18005E6
:101C2000D9F81C30B5FA85F5402A4FEA551544EA33
:101C30000302D9E904764FEA853542EA06026FF3DA
:101C4000101142EA070208BF102541EADC01D9F869
:101C50002030294341EAD20141EA131140F8081922
:101C6000C0B2CD2148433C2101EA9020C9F85C0074
:101C70004846FFF721FBD9F85C10012201F01F0153
:101C800002FA01F1416030E003212022BDE103218D
:101C90002022BAE103212022B7E1032E19D84022E5
:101CA0000121DFE816F0B2011000B2010400A5F135
:101CB000C071B1FA81F1490907E0032E02D2012176
:101CC0004022A2E105D1C5F3006111B101214022FA
:101CD0009BE143614846FFF7EFFAD9F85C103F22D9
:101CE00001F01F0102FA01F18160D9F80000012121
:101CF00040454FF0000219DC9F23C4F202039842D2
:101D000031DC5723C4F20203984256DC1023C4F29C
:101D10000203984200F092802823C4F20203984202
:101D200000F08C804023C4F2020384E045F22F438C
:101D3000C5F6020398422BDC40F2B743C4F202031B
:101D4000984248DC40F27043C4F20203984275D0D6
:101D500040F28843C4F2020398426FD040F2A0439D
:101D6000C4F2020367E040F22743C4F20203984240
:101D700040DCA023C4F2020398425FD0B823C4F22F
:101D8000020398425AD040F21043C4F2020352E0D8
:101D900045F26B43C5F6020398423CDC45F2304302
:101DA000C5F60203984249D045F24443C5F6020302
:101DB000984243D045F258433BE05823C4F2020313
:101DC00098423BD07023C4F20203984236D0882355
:101DD000C4F202032FE040F2B843C4F20203984277
:101DE0002CD045F20843C5F60203984226D045F2AE
:101DF0001C431EE040F22843C4F2020398421DD067
:101E000040F24043C4F20203984217D040F25843D4
:101E1000C4F202030FE045F26C43C5F60203984298
:101E20000CD045F29443C5F60203984206D045F221
:101E30008043C5F60203984240F0E78045F25742DE
:101E400045F6FC01C5F60202C5F6020190420EDC21
:101E500045F22F43C5F60203984217DC45F20843CA
:101E6000C5F60203984226D045F21C431FE045F216
:101E70007F43C5F60203984211DC45F25843C5F68C
:101E80000203984217D045F26C4310E045F230430C
:101E9000C5F6020398420ED045F2444307E045F2EE
:101EA0009443C5F60203984205D045F28043C5F637
:101EB000020398424FD100F0FC034CF6CD47083B9B
:101EC000CCF6CC47A3FB0737A1F1FC06A1F17C03BC
:101ED0003F0906EB8705D9F8086007F01F07802E39
:101EE0004FF00106C9F8605006FA07F7C9F86430E8
:101EF000C9F8687005D10020C9F8040028605F6047
:101F00001DE0D9F80440E6B2013C072C2E605F606A
:101F100015D8751E082D19D2904201F144033ADC00
:101F200045F22F42C5F60202904243DC45F20842D8
:101F3000C5F6020290425AD045F21C424BE0002204
:101F4000C9F87420C9E91B2201215EE0D9E91B030D
:101F5000D9F8741055E000F0F8034AF6AB27103BAF
:101F6000CAF6AA27A3FB073640F20F47C4F20207BE
:101F700008253309B84207F1AA041F4688BF05EBBC
:101F8000161740F60006A042C4F2020628BF1F46FC
:101F900006F180039DE745F27F42C5F602029042BA
:101FA00011DC45F25842C5F6020290421FD045F2BC
:101FB0006C4210E045F23042C5F60202904216D063
:101FC00045F2444207E045F28042C5F602029042E3
:101FD0000DD045F29442C5F60202904207D040F679
:101FE0000000C4F2020000F1FC0100F5A07301EB57
:101FF00086000121A940C9F86C00C9F87030C9F801
:1020000074100022026059600121C9F8542089F837
:10201000351001B0BDE8F0832DE9F04F82B00D68B6
:10202000002D00F0CA8000F126430A2203F1FF7759
:1020300042F20043C5F602034FEAB72698424FF03A
:10204000000408BF0922092E4FF0000C38BF4FEAE8
:10205000B7220127012600920BE000BF0D680CF1AA
:10206000040C35FA06F206F1010604F1020400F050
:10207000A480A6F1010907FA09FE15EA0E08EDD0C1
:10208000D1F804B003230BF00305A3406A1E6FEAE6
:10209000030A012A10D88268CB6802EA0A02A34028
:1020A0001A438260CBF30013426822EA0E0203FA5D
:1020B00009F31A43426003E0032D01D1032520E018
:1020C000C2688B6802EA0A02A340022D42EA0302B8
:1020D000C26016D16FF003020CF01C0502EA59022F
:1020E0000F23024403FA05FBD2F820E00B692EEA25
:1020F0000B0EAB4043EA0E031362D1F804B00BF0B1
:102100000305026805FA04F302EA0A021BF4403FE1
:1021100042EA03020260A1D044F2F4430F25C5F65F
:1021200002031A6842F002021A601A6802F0020200
:10213000019229F0030240F20849C5F60009019B0B
:102140000CF00C0352F809E09D40009F2EEA0505B3
:1021500007FA03F34FF0B0472B4342F80930D7F8A2
:1021600000E04B684EEA0805DA0258BF2EEA08057F
:1021700040F2040EC5F6000E3D609F02DEF800201E
:1021800042EA080558BF22EA0805CEF800509D0330
:10219000DEF8802042EA080758BF22EA0807DB037E
:1021A000CEF88070DEF87C2042EA080758BF22EAA9
:1021B0000807CEF87C70012750E702B0BDE8F08F29
:1021C00080B544F2384EC5F6020E5EF8103C5EF85B
:1021D000101C5EF80C2CC1F3053CDEF80410BCF1B9
:1021E000000F15D0C908D20601EAE2716FF35F3122
:1021F00000EE101A03F003010229B8EE400A0CD0D9
:1022000071B95EF8381C89060DD49FED351A18E0B7
:1022100000218160C0E9001180BD9FED301A10E0FF
:102220009FED2D1A0DE05EF8381C49F20002C0F255
:10223000D032C1F3C10122FA01F101EE101AB8EE59
:10224000411ADEF800109FED273A6FF35F2102EE8E
:10225000101ADEF80010C1F34621B8EE422A00EE53
:10226000032A00EE10CAB7EE003AB8EE400A81EE3B
:10227000000A32EE031A02EE101AB8EE422A20EEDD
:10228000010A32EE031A80EE011ABCEEC11A80ED8B
:10229000001ADEF80010C1F3064101EE101AB8EE84
:1022A000411A31EE031A80EE011ABCEEC11A80ED1C
:1022B000011ADEF80010C1F3066101EE101AB8EE43
:1022C000411A31EE031A80EE010ABCEEC00A10EE8C
:1022D000101A816080BD00BF0024744A20BCBE4B30
:1022E0000024744C0000003980B544F2404EC5F61D
:1022F000020E5EF8183C5EF8181C5EF8142CC1F350
:10230000055CDEF80410BCF1000F15D0C908D20539
:1023100001EAE2716FF35F3100EE101A03F003017E
:102320000229B8EE400A0CD071B95EF8401C89064B
:102330000DD49FED351A18E000218160C0E900112D
:1023400080BD9FED301A10E09FED2D1A0DE05EF874
:10235000401C49F20002C0F2D032C1F3C10122FA9E
:1023600001F101EE101AB8EE411ADEF800109FEDEF
:10237000273A6FF35F2102EE101ADEF80010C1F366
:102380004621B8EE422A00EE032A00EE10CAB7EE4C
:10239000003AB8EE400A81EE000A32EE031A02EE6D
:1023A000101AB8EE422A20EE010A32EE031A80EE2D
:1023B000011ABCEEC11A80ED001ADEF80010C1F35C
:1023C000064101EE101AB8EE411A31EE031A80EE02
:1023D000011ABCEEC11A80ED011ADEF80010C1F33B
:1023E000066101EE101AB8EE411A31EE031A80EEC2
:1023F000010ABCEEC00A10EE101A816080BD00BF59
:102400000024744A20BCBE4B0024744C00000039E8
:1024100044F20041C5F602010869C0F3C200032876
:102420000FD002282CD080BB0868800649F200003B
:10243000C0F2D03058BF70470968C1F3C101C8402D
:1024400070478A6A886AC0F3051CC86ABCF1000F2D
:102450004B6B1FD000F0010002F003024042022A41
:1024600000EAD3006FF35F3000EE100AB8EE400AC6
:1024700012D0A2B90868800614D49FED261A1EE077
:1024800047F64000C0F27D10704740F60010C0F2E1
:102490003D007047002070479FED1D1A0FE09FED33
:1024A0001B1A0CE0086849F20002C0F2D032C0F3F7
:1024B000C10022FA00F001EE100AB8EE411A086BD2
:1024C0009FED153A6FF35F2002EE100A086BC0F320
:1024D0004620B8EE422A013000EE032A00EE10CA70
:1024E000B7EE003AB8EE400A81EE000A32EE031A67
:1024F00020EE010A01EE100AB8EE411A80EE010A40
:10250000BCEEC00A10EE100A704700BF0024744AE7
:1025100020BCBE4B0024744C0000003900000000B9
:102520002DE9F04385B04AF6105743F60006C2F293
:1025300001070021C4F2000643F200023868B962C4
:1025400043F60041B042C4F20102C4F2000104D0DB
:10255000884218BF904240F0B880FB6B0124FD68B0
:10256000B04205F1080504EB53134FEAD50505FB0E
:1025700003F318BF904204D1102B0CD905B0BDE86D
:10258000F083884218BF082BF8D801F574429042B6
:1025900018BF8842F0D097F88120002A79D101F540
:1025A0008A314FF00008884287F8808071D144F268
:1025B000E04041F60045C5F60200C5F602056C464E
:1025C0004FF00109016941F480110161016901F4D1
:1025D000801100910099016841F4806101600168F7
:1025E00001F4806100910099016841F4007101607B
:1025F000016801F4007100910099016841F08001C7
:102600000160016801F0800100910099016841F0CA
:1026100080010160016801F080010091009901686A
:1026200041F4007101600068214600F400700090E0
:1026300000980220CDE901080320039005200490B2
:1026400005F54060CDF80090FFF7E6FC05F5006663
:102650004FF48060009030462146FFF7DDFC2020DB
:10266000009028462146FFF7D7FC40202146CDE9BF
:1026700000092846CDE90288FFF7CEFC4FF4006040
:102680002146CDE900093046CDE90288FFF7C4FCB8
:102690003868022187F88110016821F0010101608A
:1026A0008268D7F81880B8F1806F02F4F81ED7F866
:1026B000049017D1B9F1000F0CD0B9F5800F11D1EA
:1026C000BE6B5EB14FF4800912E0FB680F2B3FF642
:1026D00055AF42E7BE6BB6F1805F6ED1066846F437
:1026E000805606605FEA492602D44FF0010C0DE0E7
:1026F000FD68072D08D306683C6D26F480764FF000
:10270000000C2643066006E04FF0000C056825F437
:1027100080750560FD68FB69B96A43EA0E03FA6BD0
:102720001943BC6811433E697B6929438160B9F153
:10273000000F7A6AD7E90D1541EA02013A6A41EAC7
:10274000050141EA060141EA0301FB6C41EA02018D
:10275000BA6C41EA0301BB6D41EA040141EA02019E
:1027600041EA030141EA080141EA0901C1600DD0D3
:10277000016DBCF1000F21F00101016514D1C168A8
:102780007A6D21F000411143C1600DE081680122A2
:1027900062F3CC2181608168022262F34A21816068
:1027A000016D21F0010101650020C7F884000120BE
:1027B00087F8810005B0BDE8F0834FF0000994E789
:1027C00070B54AF61054C2F2010494F88020012A30
:1027D00008BF70BD4AF6306C0123C2F2010C84F8C8
:1027E00080302268DCF8006094F88150012D03D11C
:1027F000002818BF002903D1002084F8800070BD94
:10280000032584F881500025C4F88450E065A4F8BD
:102810006010A4F862106566A4F86850A4F86A50C5
:10282000A368B3F5C02FC4E91C5504D1136843F461
:102830000063136004E0D368012565F35243D3605D
:1028400053684FF6FF75AB4319445160116841F06E
:10285000010111606168B1F5800F03D1116841F485
:1028600000711160E568102D15D2B4F86210072DC3
:1028700053D9002900F0AD804FF6FE7101F1010E31
:1028800030E000BF50F8041B1162E065B4F862103C
:102890000139A4F86210B4F86210002900F09980A0
:1028A00051698907EED4DCF80010891BB1F57A7FF5
:1028B000F1D303F0A9FD002084F88000D4F884004F
:1028C00040F48070C4F88400012084F8810070BD59
:1028D000DCF80010891BB1F57A7FEAD2B4F86210F7
:1028E000002976D051698907F2D5B4F8621002291F
:1028F00007D3E16B29B10168116204214FF6FE751F
:1029000003E001887546118402210844E065B4F8AB
:1029100062102944A4F86210E0E7002959D04FF66C
:10292000FE73991E03F1010E0AE000BFDCF80030CF
:102930009B1BB3F57A7FBCD2B4F86230002B48D031
:1029400053699B07F2D5B4F86230042B07D3E36BCD
:10295000412B04D350F8043B13620D4611E0B4F848
:102960006230022B07D3E36B2BB130F8023B4FF6FA
:10297000FE75138405E00078754682F82000E06D4E
:102980000130E065B4F862302B44A4F86230D3E73C
:10299000DCF80000801BC0087C281ED850690007A6
:1029A00021D4DCF80000801BC0087C2815D85069B1
:1029B000000718D4DCF80000801BC0087C280CD865
:1029C000506900070FD4DCF80000801BB0F57A7F57
:1029D00003D250690007DBD505E0D4F8840040F04D
:1029E0002000C4F8840003F00FFD002084F880006C
:1029F000012084F88100D4F8840070BD000000003C
:102A0000FEE70000000000004AF6105C40F26F3064
:102A1000C2F2010CDCF800104A698B6943F008032C
:102A20008B618B6943F010038B610B6823F001030A
:102A30000B600B6923EA00000861886820F44040BD
:102A400088609CF88100042818BF12F0200009D08B
:102A5000DCF8840040F08000CCF88400886940F005
:102A6000200088619CF88100032818BF12F0400004
:102A700013D190051DD4D00509D5DCF8840040F0B1
:102A80000800CCF88400886940F4807088610020D8
:102A9000ACF86200ACF86A007047DCF8840040F0E3
:102AA0000400CCF88400886940F0400088619005FB
:102AB000E1D5DCF8840040F00100CCF8840088699E
:102AC00040F400708861D005E1D5D6E70000000031
:102AD0002DE9F04784B042F218440D46C5F60204D1
:102AE00007462A208DF805000DF1050001219846C2
:102AF00016464FF00069C4F80090FFF761FE4FF4EE
:102B0000006AC4F800A0380A8DF806000DF106002E
:102B100002218DF80770FFF753FEC4F800A0300AB9
:102B20008DF8080002A802218DF80960FFF748FE21
:102B30002B208DF80A000DF10A000121C4F8009045
:102B4000FFF73EFEC4F800A0280A8DF80B000DF137
:102B50000B0002218DF80C50FFF732FEC4F800A0E4
:102B60004FEA18208DF80D000DF10D0002218DF8AF
:102B70000E80FFF725FE2C208DF80F000DF10F00C1
:102B80000121C4F80090FFF71BFE04B0BDE8F087F8
:102B9000FEE7000000000000FEE70000000000006B
:102BA000704700000000000070B544F2004EC5F60A
:102BB000020EDEF8283003F00303032B01D10120BD
:102BC00070BD4AF6306CDEF80030C2F2010C23F022
:102BD0008063CEF80030DCF80030DEF8002012010F
:102BE00023D5DCF80020D21A022A00F2A980DEF8F0
:102BF0000020120119D5DCF80020D21A022A00F2B6
:102C00009F80DEF8002012010FD5DCF80020D21AD8
:102C1000022A00F29580DEF80020120105D5DCF8CA
:102C20000020D21A022AD8D98AE0DEF82820C66805
:102C300090E8380022F47C32012942EA0332A4F100
:102C400001036FF35F234FF47E4404EB4524CEF879
:102C50002820A4B24FF0FE4504EB03024FF4FE031C
:102C6000046903EB064303F4FE0305EB04641A4412
:102C700004F0FE431A44CEF83820DEF82C204369D5
:102C800022F0C00242EA0302CEF82C20DEF82C200B
:102C9000836922F0200242EA0302CEF82C20DEF8FB
:102CA0002C204FF6F87322F01002CEF82C20DEF81C
:102CB0003C20C06922EA030242EAC000CEF83C0090
:102CC0004FF40012DEF82C0008BF4FF4801240F0E1
:102CD00010000029CEF82C0008BF4FF40022DEF8C7
:102CE0002C001043CEF82C00DEF8000040F080608D
:102CF000CEF80000DCF80000DEF80010090121D455
:102D0000DCF80010091A02291AD8DEF800100901AF
:102D100018D4DCF80010091A022911D8DEF80010C6
:102D200009010FD4DCF80010091A022908D8DEF8CE
:102D30000010090106D4DCF80010091A0329DBD3BE
:102D4000032070BD002070BD70B544F2004EC5F682
:102D5000020EDEF8283003F00303032B01D101201B
:102D600070BD4AF6306CDEF80030C2F2010C23F080
:102D70008053CEF80030DCF80030DEF800209200FE
:102D800023D5DCF80020D21A022A00F2A980DEF84E
:102D90000020920019D5DCF80020D21A022A00F295
:102DA0009F80DEF8002092000FD5DCF80020D21AB8
:102DB000022A00F29580DEF80020920005D5DCF8AA
:102DC0000020D21A022AD8D98AE0DEF82820C66864
:102DD00090E8380022F07C72012942EA0352A4F103
:102DE00001036FF35F234FF47E4404EB4524CEF8D8
:102DF0002820A4B24FF0FE4504EB03024FF4FE037B
:102E0000046903EB064303F4FE0305EB04641A4470
:102E100004F0FE431A44CEF84020DEF82C2043692B
:102E200022F4406242EA0302CEF82C20DEF82C2085
:102E3000836922F4007242EA0302CEF82C20DEF805
:102E40002C204FF6F87322F48072CEF82C20DEF896
:102E50004420C06922EA030242EAC000CEF84400DE
:102E60004FF08072DEF82C0008BF4FF4000240F4EF
:102E700080700029CEF82C0008BF4FF48002DEF8E5
:102E80002C001043CEF82C00DEF8000040F08050FB
:102E9000CEF80000DCF80000DEF80010890021D434
:102EA000DCF80010091A02291AD8DEF8001089008F
:102EB00018D4DCF80010091A022911D8DEF8001025
:102EC00089000FD4DCF80010091A022908D8DEF8AE
:102ED0000010890006D4DCF80010091A0329DBD39E
:102EE000032070BD002070BDB0B584B0044601F071
:102EF0007BF801F079F8782002F022FA012807D156
:102F0000302002F01DFA012802D1E0B202F018FAD6
:102F100001F092FC01F068F8792002F011FA012822
:102F20004FF000014FF0000441F0598042F21800C8
:102F30004FF4807CC5F602004FF0807E0022002412
:102F400009E000BFC3F34023072A02F1010243EA6C
:102F5000440480F0C882C0F800C0ADF80410BDF889
:102F60000430052B24D8BDF804300133ADF804300B
:102F7000BDF80430052B1BD8BDF804300133ADF883
:102F80000430BDF80430052B9FBFBDF80430013379
:102F9000ADF80430BDF8043098BF052B08D8BDF853
:102FA00004300133ADF80430BDF80430062BDAD319
:102FB000ADF80410BDF80430052B25D8BDF8043059
:102FC0000133ADF80430BDF80430052B1CD8BDF832
:102FD00004300133ADF80430BDF80430052B9FBF39
:102FE000BDF804300133ADF80430BDF8043098BFAB
:102FF000052B09D8BDF804300133ADF80430BDF815
:103000000430062BDAD300BFADF80410BDF804304D
:10301000052B25D8BDF804300133ADF80430BDF8D8
:103020000430052B1CD8BDF804300133ADF8043052
:10303000BDF80430052B9FBFBDF804300133ADF857
:103040000430BDF8043098BF052B09D8BDF8043012
:103050000133ADF80430BDF80430062BDAD300BFDD
:10306000ADF80410BDF80430052B25D8BDF80430A8
:103070000133ADF80430BDF80430052B1CD8BDF881
:1030800004300133ADF80430BDF80430052B9FBF88
:10309000BDF804300133ADF80430BDF8043098BFFA
:1030A000052B09D8BDF804300133ADF80430BDF864
:1030B0000430062BDAD300BFADF80410BDF804309D
:1030C000052B25D8BDF804300133ADF80430BDF828
:1030D0000430052B1CD8BDF804300133ADF80430A2
:1030E000BDF80430052B9FBFBDF804300133ADF8A7
:1030F0000430BDF8043098BF052B09D8BDF8043062
:103100000133ADF80430BDF80430062BDAD300BF2C
:10311000ADF80410BDF80430052B25D8BDF80430F7
:103120000133ADF80430BDF80430052B1CD8BDF8D0
:1031300004300133ADF80430BDF80430052B9FBFD7
:10314000BDF804300133ADF80430BDF8043098BF49
:10315000052B09D8BDF804300133ADF80430BDF8B3
:103160000430062BDAD300BFADF80410BDF80430EC
:10317000052B25D8BDF804300133ADF80430BDF877
:103180000430052B1CD8BDF804300133ADF80430F1
:10319000BDF80430052B9FBFBDF804300133ADF8F6
:1031A0000430BDF8043098BF052B09D8BDF80430B1
:1031B0000133ADF80430BDF80430062BDAD300BF7C
:1031C000ADF80410BDF80430052B25D8BDF8043047
:1031D0000133ADF80430BDF80430052B1CD8BDF820
:1031E00004300133ADF80430BDF80430052B9FBF27
:1031F000BDF804300133ADF80430BDF8043098BF99
:10320000052B09D8BDF804300133ADF80430BDF802
:103210000430062BDAD300BF50F8083CC0F800E0B9
:10322000ADF80610BDF80650052D25D8BDF806509E
:103230000135ADF80650BDF80650052D1CD8BDF877
:1032400006500135ADF80650BDF80650052D9FBF5C
:10325000BDF806500135ADF80650BDF8065098BFD0
:10326000052D09D8BDF806500135ADF80650BDF85A
:103270000650062DDAD300BFADF80610BDF8065093
:10328000052D25D8BDF806500135ADF80650BDF81E
:103290000650052D1CD8BDF806500135ADF8065076
:1032A000BDF80650052D9FBFBDF806500135ADF89D
:1032B0000650BDF8065098BF052D09D8BDF8065038
:1032C0000135ADF80650BDF80650062DDAD300BF23
:1032D000ADF80610BDF80650052D25D8BDF80650EE
:1032E0000135ADF80650BDF80650052D1CD8BDF8C7
:1032F00006500135ADF80650BDF80650052D9FBFAC
:10330000BDF806500135ADF80650BDF8065098BF1F
:10331000052D09D8BDF806500135ADF80650BDF8A9
:103320000650062DDAD300BFADF80610BDF80650E2
:10333000052D25D8BDF806500135ADF80650BDF86D
:103340000650052D1CD8BDF806500135ADF80650C5
:10335000BDF80650052D9FBFBDF806500135ADF8EC
:103360000650BDF8065098BF052D09D8BDF8065087
:103370000135ADF80650BDF80650062DDAD300BF72
:10338000ADF80610BDF80650052D25D8BDF806503D
:103390000135ADF80650BDF80650052D1CD8BDF816
:1033A00006500135ADF80650BDF80650052D9FBFFB
:1033B000BDF806500135ADF80650BDF8065098BF6F
:1033C000052D09D8BDF806500135ADF80650BDF8F9
:1033D0000650062DDAD300BFADF80610BDF8065032
:1033E000052D25D8BDF806500135ADF80650BDF8BD
:1033F0000650052D1CD8BDF806500135ADF8065015
:10340000BDF80650052D9FBFBDF806500135ADF83B
:103410000650BDF8065098BF052D09D8BDF80650D6
:103420000135ADF80650BDF80650062DDAD300BFC1
:10343000ADF80610BDF80650052D25D8BDF806508C
:103440000135ADF80650BDF80650052D1CD8BDF865
:1034500006500135ADF80650BDF80650052D9FBF4A
:10346000BDF806500135ADF80650BDF8065098BFBE
:10347000052D09D8BDF806500135ADF80650BDF848
:103480000650062DDAD300BFADF80610BDF8065081
:10349000052D3FF657ADBDF806500135ADF8065085
:1034A000BDF80650052D3FF64DADBDF8065001356F
:1034B000ADF80650BDF80650052D9FBFBDF806506B
:1034C0000135ADF80650BDF8065098BF052D3FF602
:1034D00039ADBDF806500135ADF80650BDF80650BF
:1034E000062DD8D32EE54FF0807101600021ADF894
:1034F0000810BDF80820052A24D8BDF8082001329C
:10350000ADF80820BDF80820052A1BD8BDF8082012
:103510000132ADF80820BDF80820052A9FBFBDF88C
:1035200008200132ADF80820BDF8082098BF052A10
:1035300008D8BDF808200132ADF80820BDF80820F1
:10354000062ADAD3ADF80810BDF80810052924D8EA
:10355000BDF808100131ADF80810BDF808100529B4
:103560001BD8BDF808100131ADF80810BDF80810DF
:1035700005299FBFBDF808100131ADF80810BDF84E
:10358000081098BF052908D8BDF808100131ADF81A
:103590000810BDF808100629DAD30021ADF808108C
:1035A000BDF80820052A24D8BDF808200132ADF85E
:1035B0000820BDF80820052A1BD8BDF808200132D4
:1035C000ADF80820BDF80820052A9FBFBDF80820E7
:1035D0000132ADF80820BDF8082098BF052A08D8A8
:1035E000BDF808200132ADF80820BDF80820062AF1
:1035F000DAD3ADF80810BDF80810052924D8BDF8B5
:1036000008100131ADF80810BDF8081005291BD8C5
:10361000BDF808100131ADF80810BDF808100529F3
:103620009FBFBDF808100131ADF80810BDF80810B3
:1036300098BF052908D8BDF808100131ADF8081069
:10364000BDF808100629DAD30021ADF80810BDF83E
:103650000820052A24D8BDF808200132ADF808203A
:10366000BDF80820052A1BD8BDF808200132ADF8A6
:103670000820BDF80820052A9FBFBDF808200132A8
:10368000ADF80820BDF8082098BF052A08D8BDF875
:1036900008200132ADF80820BDF80820062ADAD348
:1036A000ADF80810BDF80810052924D8BDF8081099
:1036B0000131ADF80810BDF8081005291BD8BDF878
:1036C00008100131ADF80810BDF8081005299FBF9A
:1036D000BDF808100131ADF80810BDF8081098BF0A
:1036E000052908D8BDF808100131ADF80810BDF85B
:1036F00008100629DAD30021ADF80810BDF808201B
:10370000052A24D8BDF808200132ADF80820BDF8FC
:103710000820052A1BD8BDF808200132ADF8082082
:10372000BDF80820052A9FBFBDF808200132ADF87A
:103730000820BDF8082098BF052A08D8BDF8082041
:103740000132ADF80820BDF80820062ADAD3ADF81A
:103750000810BDF80810052924D8BDF8081001315B
:10376000ADF80810BDF8081005291BD8BDF80810E1
:103770000131ADF80810BDF8081005299FBFBDF84C
:1037800008100131ADF80810BDF8081098BF0529E0
:1037900008D8BDF808100131ADF80810BDF80810C0
:1037A0000629DAD34FF4007101600021ADF80A1048
:1037B000BDF80A20052A24D8BDF80A200132ADF848
:1037C0000A20BDF80A20052A1BD8BDF80A200132BC
:1037D000ADF80A20BDF80A20052A9FBFBDF80A20CF
:1037E0000132ADF80A20BDF80A2098BF052A08D892
:1037F000BDF80A200132ADF80A20BDF80A20062AD9
:10380000DAD3ADF80A10BDF80A10052924D8BDF89E
:103810000A100131ADF80A10BDF80A1005291BD8AD
:10382000BDF80A100131ADF80A10BDF80A100529DB
:103830009FBFBDF80A100131ADF80A10BDF80A109B
:1038400098BF052908D8BDF80A100131ADF80A1053
:10385000BDF80A100629DAD30021ADF80A10BDF828
:103860000A20052A24D8BDF80A200132ADF80A2022
:10387000BDF80A20052A1BD8BDF80A200132ADF890
:103880000A20BDF80A20052A9FBFBDF80A20013290
:10389000ADF80A20BDF80A2098BF052A08D8BDF85F
:1038A0000A200132ADF80A20BDF80A20062ADAD330
:1038B000ADF80A10BDF80A10052924D8BDF80A1081
:1038C0000131ADF80A10BDF80A1005291BD8BDF862
:1038D0000A100131ADF80A10BDF80A1005299FBF82
:1038E000BDF80A100131ADF80A10BDF80A1098BFF2
:1038F000052908D8BDF80A100131ADF80A10BDF845
:103900000A100629DAD30021ADF80A10BDF80A2002
:10391000052A24D8BDF80A200132ADF80A20BDF8E6
:103920000A20052A1BD8BDF80A200132ADF80A206A
:10393000BDF80A20052A9FBFBDF80A200132ADF864
:103940000A20BDF80A2098BF052A08D8BDF80A2029
:103950000132ADF80A20BDF80A20062ADAD3ADF804
:103960000A10BDF80A10052924D8BDF80A10013143
:10397000ADF80A10BDF80A1005291BD8BDF80A10C9
:103980000131ADF80A10BDF80A1005299FBFBDF836
:103990000A100131ADF80A10BDF80A1098BF0529C8
:1039A00008D8BDF80A100131ADF80A10BDF80A10A8
:1039B0000629DAD30021ADF80A10BDF80A20052A3D
:1039C00024D8BDF80A200132ADF80A20BDF80A203B
:1039D000052A1BD8BDF80A200132ADF80A20BDF82F
:1039E0000A20052A9FBFBDF80A200132ADF80A203F
:1039F000BDF80A2098BF052A08D8BDF80A20013270
:103A0000ADF80A20BDF80A20062ADAD3ADF80A106C
:103A1000BDF80A10052924D8BDF80A100131ADF807
:103A20000A10BDF80A1005291BD8BDF80A1001318B
:103A3000ADF80A10BDF80A1005299FBFBDF80A109D
:103A40000131ADF80A10BDF80A1098BF052908D851
:103A5000BDF80A100131ADF80A10BDF80A100629A8
:103A6000DAD34FF4807101600021ADF80C10BDF87D
:103A70000C20052A24D8BDF80C200132ADF80C200A
:103A8000BDF80C20052A1BD8BDF80C200132ADF87A
:103A90000C20BDF80C20052A9FBFBDF80C20013278
:103AA000ADF80C20BDF80C2098BF052A08D8BDF849
:103AB0000C200132ADF80C20BDF80C20062ADAD318
:103AC000ADF80C10BDF80C10052924D8BDF80C1069
:103AD0000131ADF80C10BDF80C1005291BD8BDF84C
:103AE0000C100131ADF80C10BDF80C1005299FBF6A
:103AF000BDF80C100131ADF80C10BDF80C1098BFDA
:103B0000052908D8BDF80C100131ADF80C10BDF82E
:103B10000C100629DAD30021ADF80C10BDF80C20EA
:103B2000052A24D8BDF80C200132ADF80C20BDF8D0
:103B30000C20052A1BD8BDF80C200132ADF80C2052
:103B4000BDF80C20052A9FBFBDF80C200132ADF84E
:103B50000C20BDF80C2098BF052A08D8BDF80C2011
:103B60000132ADF80C20BDF80C20062ADAD3ADF8EE
:103B70000C10BDF80C10052924D8BDF80C1001312B
:103B8000ADF80C10BDF80C1005291BD8BDF80C10B1
:103B90000131ADF80C10BDF80C1005299FBFBDF820
:103BA0000C100131ADF80C10BDF80C1098BF0529B0
:103BB00008D8BDF80C100131ADF80C10BDF80C1090
:103BC0000629DAD30021ADF80C10BDF80C20052A27
:103BD00024D8BDF80C200132ADF80C20BDF80C2023
:103BE000052A1BD8BDF80C200132ADF80C20BDF819
:103BF0000C20052A9FBFBDF80C200132ADF80C2027
:103C0000BDF80C2098BF052A08D8BDF80C20013259
:103C1000ADF80C20BDF80C20062ADAD3ADF80C1054
:103C2000BDF80C10052924D8BDF80C100131ADF8F1
:103C30000C10BDF80C1005291BD8BDF80C10013173
:103C4000ADF80C10BDF80C1005299FBFBDF80C1085
:103C50000131ADF80C10BDF80C1098BF052908D83B
:103C6000BDF80C100131ADF80C10BDF80C10062990
:103C7000DAD30021ADF80C10BDF80C20052A24D8A9
:103C8000BDF80C200132ADF80C20BDF80C20052A3F
:103C90001BD8BDF80C200132ADF80C20BDF80C206B
:103CA000052A9FBFBDF80C200132ADF80C20BDF8ED
:103CB0000C2098BF052A08D8BDF80C200132ADF8B9
:103CC0000C20BDF80C20062ADAD3ADF80C10BDF894
:103CD0000C10052924D8BDF80C100131ADF80C10DA
:103CE000BDF80C1005291BD8BDF80C100131ADF83A
:103CF0000C10BDF80C1005299FBFBDF80C10013148
:103D0000ADF80C10BDF80C1098BF052908D8BDF807
:103D10000C100131ADF80C10BDF80C100629DAD3E7
:103D20004FF0807101600020ADF80E00BDF80E105C
:103D3000052924D8BDF80E100131ADF80E10BDF8DC
:103D40000E1005291BD8BDF80E100131ADF80E106C
:103D5000BDF80E1005299FBFBDF80E100131ADF85A
:103D60000E10BDF80E1098BF052908D8BDF80E102A
:103D70000131ADF80E10BDF80E100629DAD3ADF8FA
:103D80000E00BDF80E00052824D8BDF80E00013045
:103D9000ADF80E00BDF80E0005281BD8BDF80E00CA
:103DA0000130ADF80E00BDF80E0005289FBFBDF82C
:103DB0000E000130ADF80E00BDF80E0098BF0528CA
:103DC00008D8BDF80E000130ADF80E00BDF80E00A9
:103DD0000628DAD30020ADF80E00BDF80E10052934
:103DE00024D8BDF80E100131ADF80E10BDF80E103C
:103DF00005291BD8BDF80E100131ADF80E10BDF825
:103E00000E1005299FBFBDF80E100131ADF80E1040
:103E1000BDF80E1098BF052908D8BDF80E10013165
:103E2000ADF80E10BDF80E100629DAD3ADF80E006D
:103E3000BDF80E00052824D8BDF80E000130ADF8FD
:103E40000E00BDF80E0005281BD8BDF80E0001308D
:103E5000ADF80E00BDF80E0005289FBFBDF80E009E
:103E60000130ADF80E00BDF80E0098BF052808D847
:103E7000BDF80E000130ADF80E00BDF80E000628AA
:103E8000DAD30020ADF80E00BDF80E10052924D8B5
:103E9000BDF80E100131ADF80E10BDF80E10052959
:103EA0001BD8BDF80E100131ADF80E10BDF80E1084
:103EB00005299FBFBDF80E100131ADF80E10BDF8F9
:103EC0000E1098BF052908D8BDF80E100131ADF8C5
:103ED0000E10BDF80E100629DAD3ADF80E00BDF8AD
:103EE0000E00052824D8BDF80E000130ADF80E00F4
:103EF000BDF80E0005281BD8BDF80E000130ADF846
:103F00000E00BDF80E0005289FBFBDF80E00013061
:103F1000ADF80E00BDF80E0098BF052808D8BDF812
:103F20000E000130ADF80E00BDF80E000628DAD301
:103F30000020ADF80E00BDF80E10052924D8BDF8FC
:103F40000E100131ADF80E10BDF80E1005291BD86A
:103F5000BDF80E100131ADF80E10BDF80E10052998
:103F60009FBFBDF80E100131ADF80E10BDF80E1058
:103F700098BF052908D8BDF80E100131ADF80E1014
:103F8000BDF80E100629DAD3ADF80E00BDF80E000C
:103F9000052824D8BDF80E000130ADF80E00BDF89C
:103FA0000E0005281BD8BDF80E000130ADF80E003C
:103FB000BDF80E0005289FBFBDF80E000130ADF81A
:103FC0000E00BDF80E0098BF052808D8BDF80E00F9
:103FD0000130ADF80E00BDF80E000628DAD300F06F
:103FE0002BFCE0B204B0B0BD82B042F218004FF436
:103FF0000071C5F6020001604FF48071016000217C
:10400000ADF80210BDF80220052A24D8BDF8022020
:104010000132ADF80220BDF80220052A1BD8BDF8F8
:1040200002200132ADF80220BDF80220052A9FBF10
:10403000BDF802200132ADF80220BDF8022098BF81
:10404000052A08D8BDF802200132ADF80220BDF8DB
:104050000220062ADAD3ADF80210BDF802100529B5
:1040600024D8BDF802100131ADF80210BDF80210DD
:1040700005291BD8BDF802100131ADF80210BDF8BA
:10408000021005299FBFBDF802100131ADF80210E2
:10409000BDF8021098BF052908D8BDF802100131FB
:1040A000ADF80210BDF802100629DAD30021ADF8F0
:1040B0000210BDF80220052A24D8BDF802200132E2
:1040C000ADF80220BDF80220052A1BD8BDF8022059
:1040D0000132ADF80220BDF80220052A9FBFBDF8CD
:1040E00002200132ADF80220BDF8022098BF052A57
:1040F00008D8BDF802200132ADF80220BDF8022038
:10410000062ADAD3ADF80210BDF80210052924D82A
:10411000BDF802100131ADF80210BDF802100529FA
:104120001BD8BDF802100131ADF80210BDF8021025
:1041300005299FBFBDF802100131ADF80210BDF88E
:10414000021098BF052908D8BDF802100131ADF85A
:104150000210BDF802100629DAD30021ADF80210D2
:10416000BDF80220052A24D8BDF802200132ADF89E
:104170000220BDF80220052A1BD8BDF8022001321A
:10418000ADF80220BDF80220052A9FBFBDF802202D
:104190000132ADF80220BDF8022098BF052A08D8E8
:1041A000BDF802200132ADF80220BDF80220062A37
:1041B000DAD3ADF80210BDF80210052924D8BDF8F5
:1041C00002100131ADF80210BDF8021005291BD80C
:1041D000BDF802100131ADF80210BDF8021005293A
:1041E0009FBFBDF802100131ADF80210BDF80210FA
:1041F00098BF052908D8BDF802100131ADF80210AA
:10420000BDF802100629DAD30021ADF80210BDF87E
:104210000220052A24D8BDF802200132ADF8022080
:10422000BDF80220052A1BD8BDF802200132ADF8E6
:104230000220BDF80220052A9FBFBDF802200132EE
:10424000ADF80220BDF8022098BF052A08D8BDF8B5
:1042500002200132ADF80220BDF80220062ADAD38E
:10426000ADF80210BDF80210052924D8BDF80210DF
:104270000131ADF80210BDF8021005291BD8BDF8B8
:1042800002100131ADF80210BDF8021005299FBFE0
:10429000BDF802100131ADF80210BDF8021098BF50
:1042A000052908D8BDF802100131ADF80210BDF89B
:1042B00002100629DAD34FF0007101600021ADF839
:1042C0000410BDF80420052A24D8BDF804200132CA
:1042D000ADF80420BDF80420052A1BD8BDF8042041
:1042E0000132ADF80420BDF80420052A9FBFBDF8B7
:1042F00004200132ADF80420BDF8042098BF052A3F
:1043000008D8BDF804200132ADF80420BDF804201F
:10431000062ADAD3ADF80410BDF80410052924D814
:10432000BDF804100131ADF80410BDF804100529E2
:104330001BD8BDF804100131ADF80410BDF804100D
:1043400005299FBFBDF804100131ADF80410BDF878
:10435000041098BF052908D8BDF804100131ADF844
:104360000410BDF804100629DAD30021ADF80410BA
:10437000BDF80420052A24D8BDF804200132ADF888
:104380000420BDF80420052A1BD8BDF80420013202
:10439000ADF80420BDF80420052A9FBFBDF8042015
:1043A0000132ADF80420BDF8042098BF052A08D8D2
:1043B000BDF804200132ADF80420BDF80420062A1F
:1043C000DAD3ADF80410BDF80410052924D8BDF8DF
:1043D00004100131ADF80410BDF8041005291BD8F4
:1043E000BDF804100131ADF80410BDF80410052922
:1043F0009FBFBDF804100131ADF80410BDF80410E2
:1044000098BF052908D8BDF804100131ADF8041093
:10441000BDF804100629DAD30021ADF80410BDF868
:104420000420052A24D8BDF804200132ADF8042068
:10443000BDF80420052A1BD8BDF804200132ADF8D0
:104440000420BDF80420052A9FBFBDF804200132D6
:10445000ADF80420BDF8042098BF052A08D8BDF89F
:1044600004200132ADF80420BDF80420062ADAD376
:10447000ADF80410BDF80410052924D8BDF80410C7
:104480000131ADF80410BDF8041005291BD8BDF8A2
:1044900004100131ADF80410BDF8041005299FBFC8
:1044A000BDF804100131ADF80410BDF8041098BF38
:1044B000052908D8BDF804100131ADF80410BDF885
:1044C00004100629DAD30021ADF80410BDF8042049
:1044D000052A24D8BDF804200132ADF80420BDF827
:1044E0000420052A1BD8BDF804200132ADF80420B1
:1044F000BDF80420052A9FBFBDF804200132ADF8A5
:104500000420BDF8042098BF052A08D8BDF804206F
:104510000132ADF80420BDF80420062ADAD3ADF844
:104520000410BDF80410052924D8BDF80410013189
:10453000ADF80410BDF8041005291BD8BDF804100F
:104540000131ADF80410BDF8041005299FBFBDF876
:1045500004100131ADF80410BDF8041098BF05290E
:1045600008D8BDF804100131ADF80410BDF80410EE
:104570000629DAD34FF0807101600020ADF8060003
:10458000BDF80610052924D8BDF806100131ADF894
:104590000610BDF8061005291BD8BDF8061001311C
:1045A000ADF80610BDF8061005299FBFBDF806102E
:1045B0000131ADF80610BDF8061098BF052908D8DE
:1045C000BDF806100131ADF80610BDF80610062939
:1045D000DAD3ADF80600BDF80600052824D8BDF8EA
:1045E00006000130ADF80600BDF8060005281BD80E
:1045F000BDF806000130ADF80600BDF8060005283C
:104600009FBFBDF806000130ADF80600BDF80600FA
:1046100098BF052808D8BDF806000130ADF806009F
:10462000BDF806000628DAD30020ADF80600BDF874
:104630000610052924D8BDF806100131ADF8061082
:10464000BDF8061005291BD8BDF806100131ADF8DC
:104650000610BDF8061005299FBFBDF806100131F0
:10466000ADF80610BDF8061098BF052908D8BDF8AA
:1046700006100131ADF80610BDF806100629DAD390
:10468000ADF80600BDF80600052824D8BDF80600E0
:104690000130ADF80600BDF8060005281BD8BDF8AE
:1046A00006000130ADF80600BDF8060005289FBFE2
:1046B000BDF806000130ADF80600BDF8060098BF51
:1046C000052808D8BDF806000130ADF80600BDF891
:1046D00006000628DAD30020ADF80600BDF8061063
:1046E000052924D8BDF806100131ADF80610BDF833
:1046F000061005291BD8BDF806100131ADF80610CB
:10470000BDF8061005299FBFBDF806100131ADF8B0
:104710000610BDF8061098BF052908D8BDF8061088
:104720000131ADF80610BDF806100629DAD3ADF850
:104730000600BDF80600052824D8BDF806000130A3
:10474000ADF80600BDF8060005281BD8BDF8060028
:104750000130ADF80600BDF8060005289FBFBDF882
:1047600006000130ADF80600BDF8060098BF052828
:1047700008D8BDF806000130ADF80600BDF8060007
:104780000628DAD30020ADF80600BDF8061005298A
:1047900024D8BDF806100131ADF80610BDF806109A
:1047A00005291BD8BDF806100131ADF80610BDF87B
:1047B000061005299FBFBDF806100131ADF806109F
:1047C000BDF8061098BF052908D8BDF806100131BC
:1047D000ADF80610BDF806100629DAD3ADF80600CC
:1047E000BDF80600052824D8BDF806000130ADF854
:1047F0000600BDF8060005281BD8BDF806000130EC
:10480000ADF80600BDF8060005289FBFBDF80600FC
:104810000130ADF80600BDF8060098BF052808D89D
:10482000BDF806000130ADF80600BDF80600062808
:10483000DAD302B07047000082B042F218004FF0A5
:104840008071C5F6020001600021ADF80010BDF8CE
:104850000020052A24D8BDF800200132ADF8002040
:10486000BDF80020052A1BD8BDF800200132ADF8A4
:104870000020BDF80020052A9FBFBDF800200132AE
:10488000ADF80020BDF8002098BF052A08D8BDF873
:1048900000200132ADF80020BDF80020062ADAD34E
:1048A000ADF80010BDF80010052924D8BDF800109F
:1048B0000131ADF80010BDF8001005291BD8BDF876
:1048C00000100131ADF80010BDF8001005299FBFA0
:1048D000BDF800100131ADF80010BDF8001098BF10
:1048E000052908D8BDF800100131ADF80010BDF859
:1048F00000100629DAD30021ADF80010BDF8002021
:10490000052A24D8BDF800200132ADF80020BDF8FA
:104910000020052A1BD8BDF800200132ADF8002088
:10492000BDF80020052A9FBFBDF800200132ADF878
:104930000020BDF8002098BF052A08D8BDF8002047
:104940000132ADF80020BDF80020062ADAD3ADF818
:104950000010BDF80010052924D8BDF80010013161
:10496000ADF80010BDF8001005291BD8BDF80010E7
:104970000131ADF80010BDF8001005299FBFBDF84A
:1049800000100131ADF80010BDF8001098BF0529E6
:1049900008D8BDF800100131ADF80010BDF80010C6
:1049A0000629DAD30021ADF80010BDF80020052A51
:1049B00024D8BDF800200132ADF80020BDF8002059
:1049C000052A1BD8BDF800200132ADF80020BDF843
:1049D0000020052A9FBFBDF800200132ADF800205D
:1049E000BDF8002098BF052A08D8BDF80020013284
:1049F000ADF80020BDF80020062ADAD3ADF800108B
:104A0000BDF80010052924D8BDF800100131ADF81B
:104A10000010BDF8001005291BD8BDF800100131A9
:104A2000ADF80010BDF8001005299FBFBDF80010BB
:104A30000131ADF80010BDF8001098BF052908D865
:104A4000BDF800100131ADF80010BDF800100629C6
:104A5000DAD30021ADF80010BDF80020052A24D8D3
:104A6000BDF800200132ADF80020BDF80020052A75
:104A70001BD8BDF800200132ADF80020BDF80020A1
:104A8000052A9FBFBDF800200132ADF80020BDF817
:104A9000002098BF052A08D8BDF800200132ADF8E3
:104AA0000020BDF80020062ADAD3ADF80010BDF8CA
:104AB0000010052924D8BDF800100131ADF8001010
:104AC000BDF8001005291BD8BDF800100131ADF864
:104AD0000010BDF8001005299FBFBDF8001001317E
:104AE000ADF80010BDF8001098BF052908D8BDF832
:104AF00000100131ADF80010BDF800100629DAD31E
:104B00004FF0007101600021ADF80210BDF80220E5
:104B1000052A24D8BDF802200132ADF80220BDF8E4
:104B20000220052A1BD8BDF802200132ADF8022070
:104B3000BDF80220052A9FBFBDF802200132ADF862
:104B40000220BDF8022098BF052A08D8BDF802202F
:104B50000132ADF80220BDF80220062ADAD3ADF802
:104B60000210BDF80210052924D8BDF80210013149
:104B7000ADF80210BDF8021005291BD8BDF80210CF
:104B80000131ADF80210BDF8021005299FBFBDF834
:104B900002100131ADF80210BDF8021098BF0529CE
:104BA00008D8BDF802100131ADF80210BDF80210AE
:104BB0000629DAD30021ADF80210BDF80220052A3B
:104BC00024D8BDF802200132ADF80220BDF8022041
:104BD000052A1BD8BDF802200132ADF80220BDF82D
:104BE0000220052A9FBFBDF802200132ADF8022045
:104BF000BDF8022098BF052A08D8BDF8022001326E
:104C0000ADF80220BDF80220062ADAD3ADF8021072
:104C1000BDF80210052924D8BDF802100131ADF805
:104C20000210BDF8021005291BD8BDF80210013191
:104C3000ADF80210BDF8021005299FBFBDF80210A3
:104C40000131ADF80210BDF8021098BF052908D84F
:104C5000BDF802100131ADF80210BDF802100629AE
:104C6000DAD30021ADF80210BDF80220052A24D8BD
:104C7000BDF802200132ADF80220BDF80220052A5D
:104C80001BD8BDF802200132ADF80220BDF8022089
:104C9000052A9FBFBDF802200132ADF80220BDF801
:104CA000022098BF052A08D8BDF802200132ADF8CD
:104CB0000220BDF80220062ADAD3ADF80210BDF8B2
:104CC0000210052924D8BDF802100131ADF80210F8
:104CD000BDF8021005291BD8BDF802100131ADF84E
:104CE0000210BDF8021005299FBFBDF80210013166
:104CF000ADF80210BDF8021098BF052908D8BDF81C
:104D000002100131ADF80210BDF802100629DAD305
:104D10000021ADF80210BDF80220052A24D8BDF804
:104D200002200132ADF80220BDF80220052A1BD86E
:104D3000BDF802200132ADF80220BDF80220052A9C
:104D40009FBFBDF802200132ADF80220BDF802205D
:104D500098BF052A08D8BDF802200132ADF802201C
:104D6000BDF80220062ADAD3ADF80210BDF8021011
:104D7000052924D8BDF802100131ADF80210BDF8A4
:104D8000021005291BD8BDF802100131ADF8021040
:104D9000BDF8021005299FBFBDF802100131ADF822
:104DA0000210BDF8021098BF052908D8BDF80210FE
:104DB0000131ADF80210BDF802100629DAD34FF424
:104DC000807101600021ADF80410BDF80420052AAF
:104DD00024D8BDF804200132ADF80420BDF8042029
:104DE000052A1BD8BDF804200132ADF80420BDF817
:104DF0000420052A9FBFBDF804200132ADF804202D
:104E0000BDF8042098BF052A08D8BDF80420013257
:104E1000ADF80420BDF80420062ADAD3ADF804105A
:104E2000BDF80410052924D8BDF804100131ADF8EF
:104E30000410BDF8041005291BD8BDF80410013179
:104E4000ADF80410BDF8041005299FBFBDF804108B
:104E50000131ADF80410BDF8041098BF052908D839
:104E6000BDF804100131ADF80410BDF80410062996
:104E7000DAD30021ADF80410BDF80420052A24D8A7
:104E8000BDF804200132ADF80420BDF80420052A45
:104E90001BD8BDF804200132ADF80420BDF8042071
:104EA000052A9FBFBDF804200132ADF80420BDF8EB
:104EB000042098BF052A08D8BDF804200132ADF8B7
:104EC0000420BDF80420062ADAD3ADF80410BDF89A
:104ED0000410052924D8BDF804100131ADF80410E0
:104EE000BDF8041005291BD8BDF804100131ADF838
:104EF0000410BDF8041005299FBFBDF8041001314E
:104F0000ADF80410BDF8041098BF052908D8BDF805
:104F100004100131ADF80410BDF804100629DAD3ED
:104F20000021ADF80410BDF80420052A24D8BDF8EE
:104F300004200132ADF80420BDF80420052A1BD856
:104F4000BDF804200132ADF80420BDF80420052A84
:104F50009FBFBDF804200132ADF80420BDF8042045
:104F600098BF052A08D8BDF804200132ADF8042006
:104F7000BDF80420062ADAD3ADF80410BDF80410F9
:104F8000052924D8BDF804100131ADF80410BDF88E
:104F9000041005291BD8BDF804100131ADF8041028
:104FA000BDF8041005299FBFBDF804100131ADF80C
:104FB0000410BDF8041098BF052908D8BDF80410E6
:104FC0000131ADF80410BDF804100629DAD3002130
:104FD000ADF80410BDF80420052A24D8BDF804203B
:104FE0000132ADF80420BDF80420052A1BD8BDF815
:104FF00004200132ADF80420BDF80420052A9FBF2B
:10500000BDF804200132ADF80420BDF8042098BF9B
:10501000052A08D8BDF804200132ADF80420BDF8F7
:105020000420062ADAD3ADF80410BDF804100529CF
:1050300024D8BDF804100131ADF80410BDF80410F7
:1050400005291BD8BDF804100131ADF80410BDF8D6
:10505000041005299FBFBDF804100131ADF80410FC
:10506000BDF8041098BF052908D8BDF80410013117
:10507000ADF80410BDF804100629DAD34FF400711E
:1050800001600020ADF80600BDF80610052924D8FF
:10509000BDF806100131ADF80610BDF8061005295F
:1050A0001BD8BDF806100131ADF80610BDF806108A
:1050B00005299FBFBDF806100131ADF80610BDF8F7
:1050C000061098BF052908D8BDF806100131ADF8C3
:1050D0000610BDF806100629DAD3ADF80600BDF8B3
:1050E0000600052824D8BDF806000130ADF80600FA
:1050F000BDF8060005281BD8BDF806000130ADF844
:105100000600BDF8060005289FBFBDF80600013067
:10511000ADF80600BDF8060098BF052808D8BDF810
:1051200006000130ADF80600BDF806000628DAD307
:105130000020ADF80600BDF80610052924D8BDF8FA
:1051400006100131ADF80610BDF8061005291BD870
:10515000BDF806100131ADF80610BDF8061005299E
:105160009FBFBDF806100131ADF80610BDF806105E
:1051700098BF052908D8BDF806100131ADF8061012
:10518000BDF806100629DAD3ADF80600BDF8060012
:10519000052824D8BDF806000130ADF80600BDF89A
:1051A000060005281BD8BDF806000130ADF8060042
:1051B000BDF8060005289FBFBDF806000130ADF818
:1051C0000600BDF8060098BF052808D8BDF80600FF
:1051D0000130ADF80600BDF806000628DAD300203D
:1051E000ADF80600BDF80610052924D8BDF8061054
:1051F0000131ADF80610BDF8061005291BD8BDF821
:1052000006100131ADF80610BDF8061005299FBF44
:10521000BDF806100131ADF80610BDF8061098BFB4
:10522000052908D8BDF806100131ADF80610BDF803
:1052300006100629DAD3ADF80600BDF806000528E9
:1052400024D8BDF806000130ADF80600BDF8060010
:1052500005281BD8BDF806000130ADF80600BDF8E2
:10526000060005289FBFBDF806000130ADF8060016
:10527000BDF8060098BF052808D8BDF80600013023
:10528000ADF80600BDF806000628DAD30020ADF818
:105290000600BDF80610052924D8BDF80610013116
:1052A000ADF80610BDF8061005291BD8BDF806108C
:1052B0000131ADF80610BDF8061005299FBFBDF8F5
:1052C00006100131ADF80610BDF8061098BF05298B
:1052D00008D8BDF806100131ADF80610BDF806106B
:1052E0000629DAD3ADF80600BDF80600052824D853
:1052F000BDF806000130ADF80600BDF8060005282F
:105300001BD8BDF806000130ADF80600BDF8060058
:1053100005289FBFBDF806000130ADF80600BDF8B6
:10532000060098BF052808D8BDF806000130ADF882
:105330000600BDF806000628DAD302B07047000068
:1053400010B583B042F218010022C5F602014FF4F5
:10535000807C4FF0807E002344B2B4F1FF3F4FF4D5
:105360000074C8BF4FF000740C60ADF80020BDF8A9
:105370000040052C24D8BDF800400134ADF80040B1
:10538000BDF80040052C1BD8BDF800400134ADF835
:105390000040BDF80040052C9FBFBDF8004001341F
:1053A000ADF80040BDF8004098BF052C08D8BDF806
:1053B00000400134ADF80040BDF80040062CDAD3BF
:1053C000ADF80020BDF80040052C25D8BDF8004000
:1053D0000134ADF80040BDF80040052C1CD8BDF8E4
:1053E00000400134ADF80040BDF80040052C9FBFDF
:1053F000BDF800400134ADF80040BDF8004098BF52
:10540000052C09D8BDF800400134ADF80040BDF8C6
:105410000040062CDAD300BFADF80020BDF80040F4
:10542000052C25D8BDF800400134ADF80040BDF88A
:105430000040052C1CD8BDF800400134ADF80040F8
:10544000BDF80040052C9FBFBDF800400134ADF809
:105450000040BDF8004098BF052C09D8BDF80040B9
:105460000134ADF80040BDF80040062CDAD300BF8F
:10547000ADF80020BDF80040052C25D8BDF800404F
:105480000134ADF80040BDF80040052C1CD8BDF833
:1054900000400134ADF80040BDF80040052C9FBF2E
:1054A000BDF800400134ADF80040BDF8004098BFA1
:1054B000052C09D8BDF800400134ADF80040BDF816
:1054C0000040062CDAD300BFADF80020BDF8004044
:1054D000052C25D8BDF800400134ADF80040BDF8DA
:1054E0000040052C1CD8BDF800400134ADF8004048
:1054F000BDF80040052C9FBFBDF800400134ADF859
:105500000040BDF8004098BF052C09D8BDF8004008
:105510000134ADF80040BDF80040062CDAD300BFDE
:10552000ADF80020BDF80040052C25D8BDF800409E
:105530000134ADF80040BDF80040052C1CD8BDF882
:1055400000400134ADF80040BDF80040052C9FBF7D
:10555000BDF800400134ADF80040BDF8004098BFF0
:10556000052C09D8BDF800400134ADF80040BDF865
:105570000040062CDAD300BFADF80020BDF8004093
:10558000052C25D8BDF800400134ADF80040BDF829
:105590000040052C1CD8BDF800400134ADF8004097
:1055A000BDF80040052C9FBFBDF800400134ADF8A8
:1055B0000040BDF8004098BF052C09D8BDF8004058
:1055C0000134ADF80040BDF80040062CDAD300BF2E
:1055D000ADF80020BDF80040052C25D8BDF80040EE
:1055E0000134ADF80040BDF80040052C1CD8BDF8D2
:1055F00000400134ADF80040BDF80040052C9FBFCD
:10560000BDF800400134ADF80040BDF8004098BF3F
:10561000052C09D8BDF800400134ADF80040BDF8B4
:105620000040062CDAD300BFC1F800C0ADF802205C
:10563000BDF80240052C25D8BDF802400134ADF874
:105640000240BDF80240052C1CD8BDF802400134D0
:10565000ADF80240BDF80240052C9FBFBDF80240E6
:105660000134ADF80240BDF8024098BF052C09D8BE
:10567000BDF802400134ADF80240BDF80240062CEE
:10568000DAD300BFADF80220BDF80240052C25D8C2
:10569000BDF802400134ADF80240BDF80240052CCF
:1056A0001CD8BDF802400134ADF80240BDF80240FC
:1056B000052C9FBFBDF802400134ADF80240BDF893
:1056C000024098BF052C09D8BDF802400134ADF85E
:1056D0000240BDF80240062CDAD300BFADF802202C
:1056E000BDF80240052C25D8BDF802400134ADF8C4
:1056F0000240BDF80240052C1CD8BDF80240013420
:10570000ADF80240BDF80240052C9FBFBDF8024035
:105710000134ADF80240BDF8024098BF052C09D80D
:10572000BDF802400134ADF80240BDF80240062C3D
:10573000DAD300BFADF80220BDF80240052C25D811
:10574000BDF802400134ADF80240BDF80240052C1E
:105750001CD8BDF802400134ADF80240BDF802404B
:10576000052C9FBFBDF802400134ADF80240BDF8E2
:10577000024098BF052C09D8BDF802400134ADF8AD
:105780000240BDF80240062CDAD300BFADF802207B
:10579000BDF80240052C25D8BDF802400134ADF813
:1057A0000240BDF80240052C1CD8BDF8024001346F
:1057B000ADF80240BDF80240052C9FBFBDF8024085
:1057C0000134ADF80240BDF8024098BF052C09D85D
:1057D000BDF802400134ADF80240BDF80240062C8D
:1057E000DAD300BFADF80220BDF80240052C25D861
:1057F000BDF802400134ADF80240BDF80240052C6E
:105800001CD8BDF802400134ADF80240BDF802409A
:10581000052C9FBFBDF802400134ADF80240BDF831
:10582000024098BF052C09D8BDF802400134ADF8FC
:105830000240BDF80240062CDAD300BFADF80220CA
:10584000BDF80240052C25D8BDF802400134ADF862
:105850000240BDF80240052C1CD8BDF802400134BE
:10586000ADF80240BDF80240052C9FBFBDF80240D4
:105870000134ADF80240BDF8024098BF052C09D8AC
:10588000BDF802400134ADF80240BDF80240062CDC
:10589000DAD300BFADF80220BDF80240052C25D8B0
:1058A000BDF802400134ADF80240BDF80240052CBD
:1058B0001CD8BDF802400134ADF80240BDF80240EA
:1058C000052C9FBFBDF802400134ADF80240BDF881
:1058D000024098BF052C09D8BDF802400134ADF84C
:1058E0000240BDF80240062CDAD300BF072BC1F8F6
:1058F00000E002D0400001332EE54FF40070086054
:1059000008600020ADF80400BDF80420052A24D862
:10591000BDF804200132ADF80420BDF80420052AAA
:105920001BD8BDF804200132ADF80420BDF80420D6
:10593000052A9FBFBDF804200132ADF80420BDF850
:10594000042098BF052A08D8BDF804200132ADF81C
:105950000420BDF80420062ADAD3ADF80400BDF80F
:105960000400052824D8BDF804000130ADF8040077
:10597000BDF8040005281BD8BDF804000130ADF8BF
:105980000400BDF8040005289FBFBDF804000130E5
:10599000ADF80400BDF8040098BF052808D8BDF88C
:1059A00004000130ADF80400BDF804000628DAD385
:1059B0000020ADF80400BDF80420052A24D8BDF865
:1059C00004200132ADF80420BDF80420052A1BD8BC
:1059D000BDF804200132ADF80420BDF80420052AEA
:1059E0009FBFBDF804200132ADF80420BDF80420AB
:1059F00098BF052A08D8BDF804200132ADF804206C
:105A0000BDF80420062ADAD3ADF80400BDF804007E
:105A1000052824D8BDF804000130ADF80400BDF815
:105A2000040005281BD8BDF804000130ADF80400BF
:105A3000BDF8040005289FBFBDF804000130ADF893
:105A40000400BDF8040098BF052808D8BDF804007C
:105A50000130ADF80400BDF804000628DAD30020B8
:105A6000ADF80400BDF80420052A24D8BDF80420B0
:105A70000132ADF80420BDF80420052A1BD8BDF87A
:105A800004200132ADF80420BDF80420052A9FBF90
:105A9000BDF804200132ADF80420BDF8042098BF01
:105AA000052A08D8BDF804200132ADF80420BDF85D
:105AB0000420062ADAD3ADF80400BDF80400052856
:105AC00024D8BDF804000130ADF80400BDF804008E
:105AD00005281BD8BDF804000130ADF80400BDF85E
